S01D00005374617469635F44657369676E5F50726F6A6563742E73726563B0
S11300000C9431000C9426050C944D050C94740545
S11300100C9443000C9442090C9443000C94430048
S11300200C9443000C9419090C9443000C94F008AC
S11300300C9443000C9443000C9443000C94430030
S11300400C9443000C9443000C9443000C94430020
S11300500C9443006A086E087208720876087608E1
S11300607A0811241FBECFE5D8E0DEBFCDBF20E063
S1130070A0E6B0E001C01D92A13AB207E1F70E94E8
S11300803A030C94D5090C9400000E94D1020E94FA
S1130090D60080E008950E94F3028CE990E00E946B
S11300A002038091A000813009F458C078F18230B5
S11300B009F07AC06CE381E00E94E60080919C0024
S11300C090919D00A0919E00B0919F008333910573
S11300D0A105B10520F082E08093A00065C0AC01C9
S11300E0BD0148525109610971094B30510561053F
S11300F0710518F41092A00057C08997A105B105A5
S113010008F052C081E08093A0004EC06EE181E00F
S11301100E94E60080919C0090919D00A0919E0019
S1130120B0919F0088329105A105B10520F481E0CA
S11301308093A00039C083339105A105B10520F057
S113014082E08093A00030C08997A109B1090A9781
S1130150A105B10548F51092A00026C06CE382E029
S11301600E94E60064E670E080E090E00E942003D4
S113017080919C0090919D00A0919E00B0919F0061
S11301808897A105B10580F06CE383E00E94E60046
S113019068E572E080E090E00E9420036EE181E077
S11301A00E94E6001092A00080E0089581E00E9481
S11301B0F60182E00E94F60160E081E00E9488027C
S11301C060E082E00E94880280E00895CF93C62F09
S11301D0823031F128F4882349F0813079F056C017
S11301E0833081F1843009F43FC050C081E00E9423
S11301F0BE0282E00E94BE0280E049C061E081E06C
S11302000E94290261E082E00E9429026C2F81E0B1
S11302100E94A3026C2F82E00E94A30280E037C0F8
S113022062E081E00E94290262E082E00E942902E9
S11302306C2F81E00E94A3026C2F82E00E94A30233
S113024080E025C060E081E00E94290261E082E054
S11302500E9429026C2F81E00E94A3026C2F82E08D
S11302600E94A30280E013C061E081E00E942902A1
S113027060E082E00E9429026C2F81E00E94A302C8
S11302806C2F82E00E94A30280E001C081E0CF9144
S1130290089580916B008F5F80936B000895CF93D6
S11302A0DF931F92CDB7DEB7AE014F5F5F4F64E0BF
S11302B081E00E94ED038981882359F060E071E0B8
S11302C082E00E94960862E0809166000E94C40465
S11302D010C063E0809166000E94C40481E08093B2
S11302E06A0064E770E082E00E94D30882E00E9422
S11302F0B9080F90DF91CF910895CF93892BF1F036
S1130300E6E6F0E08FE491E09383828383E08183E7
S1130310C2E0C083CF010E942004E0E6F0E089E45B
S113032091E095838483C083118284E0838381E098
S11303308283CF010E94990780E001C081E0CF91C0
S11303400895CF93DF936115710509F44BC0EB0158
S113035082E00E94AE0463E082E00E94C4048091C3
S11303606A008130E1F780916B0020917400309134
S1130370750090E0982F8827820F931FA0E0B0E0CB
S11303808093700090937100A0937200B0937300F7
S11303908091700090917100A0917200B0917300EF
S11303A0880F991FAA1FBB1F880F991FAA1FBB1F65
S11303B080936C0090936D00A0936E00B0936F00D7
S11303C080916C0090916D00A0916E00B0916F00CF
S11303D088839983AA83BB8310926A0010926B006E
S11303E080E001C081E0DF91CF910895CF93813007
S11303F019F08230B1F02AC0EEE7F0E081E08083AA
S1130400C3E0C183CF010E949B05E9E7F0E08FEFD1
S11304108283C0838CE08183CF010E94420380E009
S113042016C0ECE7F0E082E08083C3E0C183CF0133
S11304300E949B05E6E7F0E08FEF8283C08380ECA7
S11304408183CF010E94420380E001C081E0CF910B
S11304500895813019F0823059F154C0613081F02F
S113046018F06230C9F050C040E064E083E00E94BC
S11304709F0340E068E083E00E949F0380E00895CA
S11304804FEF64E083E00E949F0340E068E083E074
S11304900E949F0380E0089540E064E083E00E94AE
S11304A09F034FEF68E083E00E949F0380E008957C
S11304B0613081F018F06230C9F028C040E060E497
S11304C083E00E949F0340E060E883E00E949F0372
S11304D080E008954FEF60E483E00E949F0340E0D2
S11304E060E883E00E949F0380E0089540E060E4B8
S11304F083E00E949F034FEF60E883E00E949F0324
S113050080E0089580E0089581E0089581E00895F1
S1130510813019F0823059F014C028EE33E040E005
S113052050E080917E000E948A0680E0089528EEC3
S113053033E040E050E080917C000E948A0680E035
S1130540089581E00895813019F0823059F014C083
S113055028EE33E040E050E080917E000E940A07DC
S113056080E0089528EE33E040E050E080917C0084
S11305700E940A0780E0089581E00895813019F00F
S1130580823039F00CC080917E000E947B0780E0AD
S1130590089580917C000E947B0780E0089581E0AB
S11305A008951F93CF93DF9300D000D01F92CDB74F
S11305B0DEB78FEF8B8381E0898312E01A83CE014B
S11305C001960E9442031C831D83CE0104960E945F
S11305D07D0180E00F900F900F900F900F90DF91AE
S11305E0CF911F9108954FEF62E081E00E949F0335
S11305F084E18150F1F740E062E081E00E949F03D2
S113060080E00895CF93DF93EC0160E870E082E02E
S11306100E94A1016091800070918100809182000C
S1130620909183002AE330E040E050E00E947F098B
S1130630288339834A835B8380E0DF91CF910895D7
S11306409B01AC01A0EDB5E00E94B609AB01BC0171
S1130650411551056105710561F080E090E0DC0110
S113066000000196A11DB11D84179507A607B707C1
S1130670B9F708958FB780688FBF0E9445000E9424
S11306804B00FDCFFC01892B09F44FC080818130E0
S1130690C1F028F0823039F18330B1F148C03281A1
S11306A0332341F03F3F09F044C02AB39181922B98
S11306B09ABB08952AB39181909592239ABB832F74
S11306C008953281332341F03F3FC1F597B38181CF
S11306D0892B87BB80E0089527B39181909592235D
S11306E097BB832F08958281882341F08F3F19F5AA
S11306F094B38181892B84BB80E0089524B39181D4
S11307009095922394BB08958281882341F08F3F72
S1130710A1F49AB38181892B8ABB80E0089524B324
S113072091819095922394BB089581E0089581E08E
S1130730089581E0089581E0089581E0089581306D
S1130740A9F028F0823009F1833071F13CC04F3FA9
S113075029F48BB3682B6BBB80E00895411135C03D
S11307608BB3609568236BBB80E008954F3F29F4F9
S113077088B3682B68BB80E00895411128C088B312
S11307806095682368BB80E008954F3F29F485B3E2
S1130790682B65BB80E0089541111BC085B360954B
S11307A0682365BB80E008954F3F29F482B3682B2A
S11307B062BB80E0089541110EC082B36095682346
S11307C062BB80E0089581E0089580E0089580E0B0
S11307D0089580E0089580E00895FA01309761F16A
S11307E0813079F028F08230A9F08330E1F026C01E
S11307F089B3862390E070E00E946B09608380E0F7
S1130800089586B3862390E070E00E946B096083AC
S113081080E0089583B3862390E070E00E946B0922
S1130820608380E0089580B3862390E070E00E94A6
S11308306B09608380E0089581E0089581E0089564
S11308400F931F93CF93DF9300D01F92CDB7DEB7E2
S1130850009709F47AC08C0181E089831B8284E0CB
S11308608A83CE0101960E9442039FB790689FBF7E
S1130870F8018081813059F120F0823009F44DC0B3
S113088060C0F801828193819093850080938400F5
S11308908181813051F028F0823071F0833099F0F9
S11308A052C085B78C7F85BF4CC085B7816085BF3A
S11308B085B78D7F85BF45C085B78E7F85BF85B7DA
S11308C0826085BF3EC085B7836085BF3AC0F801AA
S11308D08281938190938700809386008181813007
S11308E051F028F0823071F0833099F02CC085B734
S11308F0837F85BF26C085B7846085BF85B7877F22
S113090085BF1FC085B78B7F85BF85B7816085BFD5
S113091018C085B78C6085BF14C0F80182819381AB
S113092090938900809388008181823019F083300C
S113093029F009C084B78F7B84BF03C084B7806467
S113094084BF80E003C081E001C081E00F900F907C
S11309500F90DF91CF911F910F9108959FB79068E9
S11309609FBF813041F018F0823049F00BC08BB743
S113097080648BBF07C08BB780688BBF03C08BB705
S113098080628BBF80E00895813039F120F082309D
S113099009F445C053C0613059F028F0623081F049
S11309A06330B1F04DC085B78C7F85BF80E008957A
S11309B085B7816085BF85B78D7F85BF80E0089549
S11309C085B78E7F85BF85B7826085BF80E0089537
S11309D085B7836085BF80E00895613059F028F0C1
S11309E0623081F06330B1F02DC085B7837F85BF5D
S11309F080E0089585B7846085BF85B7877F85BF0C
S1130A0080E0089585B78B7F85BF85B7886085BFF3
S1130A1080E0089585B78C6085BF80E008956230DA
S1130A2019F0633031F010C084B78F7B84BF80E04D
S1130A30089584B7806484BF80E0089580E00895B9
S1130A4081E0089581E0089581E008951F920F9256
S1130A500FB60F9211242F933F934F935F936F938D
S1130A607F938F939F93AF93BF93EF93FF93E09103
S1130A708400F09185000995FF91EF91BF91AF91AA
S1130A809F918F917F916F915F914F913F912F91A2
S1130A900F900FBE0F901F9018951F920F920FB6D4
S1130AA00F9211242F933F934F935F936F937F93F0
S1130AB08F939F93AF93BF93EF93FF93E09186003F
S1130AC0F09187000995FF91EF91BF91AF919F91AC
S1130AD08F917F916F915F914F913F912F910F90E3
S1130AE00FBE0F901F9018951F920F920FB60F9282
S1130AF011242F933F934F935F936F937F938F931F
S1130B009F93AF93BF93EF93FF93E0918800F0918D
S1130B1089000995FF91EF91BF91AF919F918F91BA
S1130B207F916F915F914F913F912F910F900FBEE5
S1130B300F901F901895FC019081913091F138F03D
S1130B40923009F475C0933009F4B9C0E2C08181D0
S1130B50833099F028F4882341F0813051F019C092
S1130B60853079F0863089F014C081E0809391005B
S1130B7012C082E0809391000EC083E080939100C4
S1130B800AC084E08093910006C085E080939100C0
S1130B9002C081E0089583B7806683BF88E087BB85
S1130BA0B8C081818330F9F028F4882341F0813082
S1130BB081F036C0853009F1863049F131C081E0D9
S1130BC08093900081E090E090938D0080938C005E
S1130BD027C082E08093900088E090E090938D009D
S1130BE080938C001DC083E08093900080E490E0AB
S1130BF090938D0080938C0013C084E080939000C8
S1130C0080E091E090938D0080938C0009C085E092
S1130C108093900080E094E090938D0080938C000A
S1130C208FB580688FBD8EB580618EBD8D9A71C081
S1130C3081818330F9F028F4882341F0813081F0F8
S1130C4036C0853009F1863049F131C081E08093A6
S1130C508F0081E090E090938B0080938A0027C0FE
S1130C6082E080938F0088E090E090938B008093E3
S1130C708A001DC083E080938F0080E490E090930D
S1130C808B0080938A0013C084E080938F0080E0FF
S1130C9091E090938B0080938A0009C085E0809353
S1130CA08F0080E094E090938B0080938A008FB54E
S1130CB080628FBD8EB580618EBD8C9A2AC0818181
S1130CC08230A1F028F4882349F0813059F01DC006
S1130CD08430A1F078F08630A9F017C081E08093C9
S1130CE08E0013C082E080938E000FC083E0809357
S1130CF08E000BC084E080938E0007C085E0809353
S1130D008E0003C087E080938E0085B5806685BD24
S1130D108F9A0895CF93C62F8130B1F030F082308E
S1130D20F1F1833009F466C073C093B780919100E8
S1130D30892B83BF2FEF629FC001112464E670E00A
S1130D400E946B096CBF64C09EB580919000892B92
S1130D508EBDA0918C00B0918D00AA0FBB1F0E9484
S1130D60B6099B01AC0160E074E284EF90E00E945C
S1130D707F0937BD26BD86B597B5C89F9001C99F29
S1130D80300D11243695279536952795ABE7B4E1B8
S1130D900E94A709969587959BBD8ABD39C09EB5CB
S1130DA080918F00892B8EBDA0918A00B0918B0019
S1130DB0AA0FBB1F0E94B6099B01AC0160E074E25C
S1130DC084EF90E00E947F0937BD26BD86B597B5B4
S1130DD0C89F9001C99F300D1124369527953695EB
S1130DE02795ABE7B4E10E94A7099695879599BD2D
S1130DF088BD0EC095B580918E00892B85BD2FEFDF
S1130E00629FC001112464E670E00E946B0963BD17
S1130E10CF910895CF93C62F81110BC02FEF629FFE
S1130E20C001112464E670E00E946B096CBF80E08D
S1130E3060C0813039F5A0918C00B0918D00AA0F6B
S1130E40BB1F0E94B6099B01AC0160E074E284EF11
S1130E5090E00E947F0937BD26BD86B597B5C89F2F
S1130E609001C99F300D1124369527953695279505
S1130E70ABE7B4E10E94A709969587959BBD8ABD0F
S1130E8080E037C0823039F5A0918A00B0918B00A0
S1130E90AA0FBB1F0E94B6099B01AC0160E074E27B
S1130EA084EF90E00E947F0937BD26BD86B597B5D3
S1130EB0C89F9001C99F300D11243695279536950A
S1130EC02795ABE7B4E10E94A7099695879599BD4C
S1130ED088BD80E00EC0833059F42FEF629FC001BB
S1130EE0112464E670E00E946B0963BD80E001C0D8
S1130EF081E0CF910895813059F028F0823069F073
S1130F00833081F014C083B78F7D83BF80E0089560
S1130F108EB580788EBD80E008958EB580728EBDCA
S1130F2080E0089585B5807285BD80E0089581E0F4
S1130F300895DC018C91813009F451C020F0823095
S1130F4009F4ADC0E7C014962D913C9115973093E8
S1130F5097002093960011969C911197913041F13E
S1130F6018F0923049F1D8C013969C91139794309D
S1130F7099F028F4913041F0923051F0CFC096307E
S1130F8079F0973089F0CAC091E090939B0017C024
S1130F9092E090939B0013C093E090939B000FC04A
S1130FA094E090939B000BC095E090939B0007C046
S1130FB097E090939B0003C096E090939B00129659
S1130FC09C91992319F0913031F0AAC089B78E7F92
S1130FD089BF892F089599B7916099BF0895149690
S1130FE02D913C9115973093950020939400119680
S1130FF09C9111979130B9F118F09230D9F108957C
S113100013969C9113979430C9F028F4913041F0D1
S1131010923069F008959630C1F09730E9F0089560
S113102021E030E030939A002093990029C022E017
S113103030E030939A002093990022C023E030E0FE
S113104030939A00209399001BC024E030E0309341
S11310509A002093990014C025E030E030939A0060
S1131060209399000DC027E030E030939A0020933C
S1131070990006C026E030E030939A00209399004E
S113108012969C91992319F0913021F0089519BE7C
S1131090892F089589B7846089BF80E008951496E4
S11310A08D919C9115979093930080939200119643
S11310B08C911197811121C01396EC9113974E2FA7
S11310C050E0FA013197E730F10560F5E65DFF4F36
S11310D00C94A10981E0809398000FC082E0809372
S11310E098000BC084E08093980007C086E080934A
S11310F0980003C087E08093980012968C9188230F
S113110019F0813019F010C019BE089580E489BF28
S113111080E0089580E0089581E0089581E00895D5
S113112081E0089581E0089581E00895813059F0C7
S113113018F08230A9F01BC0619562BF80919B00BA
S113114083BF80E008957195619571097DBD6CBD83
S11311508091990090919A009FBD8EBD80E0089582
S1131160619564BD8091980085BD80E0089581E01B
S11311700895813049F018F0823071F012C083B7BD
S1131180887F83BF80E008958EB59FB5887F9927B7
S11311909FBD8EBD80E0089585B5887F85BD80E0C4
S11311A0089581E00895813059F018F0823079F083
S11311B015C082B790E0FB019183808380E008959D
S11311C08CB59DB5FB019183808380E0089584B53F
S11311D090E0FB019183808380E0089581E008958D
S11311E01F920F920FB60F9211242F933F934F9398
S11311F05F936F937F938F939F93AF93BF93EF937B
S1131200FF93E0919600F0919700309709F00995CB
S1131210FF91EF91BF91AF919F918F917F916F91CA
S11312205F914F913F912F910F900FBE0F901F90A0
S113123018951F920F920FB60F9211242F933F937C
S11312404F935F936F937F938F939F93AF93BF93CA
S1131250EF93FF93E0919400F0919500309709F09B
S11312600995FF91EF91BF91AF919F918F917F91DC
S11312706F915F914F913F912F910F900FBE0F90FF
S11312801F9018951F920F920FB60F9211242F934F
S11312903F934F935F936F937F938F939F93AF93FA
S11312A0BF93EF93FF93E0919200F09193003097F6
S11312B009F00995FF91EF91BF91AF919F918F91A3
S11312C07F916F915F914F913F912F910F900FBE3E
S11312D00F901F90189597FB072E16F4009407D0D3
S11312E077FD09D00E94C10907FC05D03EF4909512
S11312F081959F4F0895709561957F4F0895A1E260
S11313001A2EAA1BBB1BFD010DC0AA1FBB1FEE1F7B
S1131310FF1FA217B307E407F50720F0A21BB30BC6
S1131320E40BF50B661F771F881F991F1A9469F742
S113133060957095809590959B01AC01BD01CF019E
S11313400895EE0FFF1F0590F491E02D0994A29FDC
S1131350B001B39FC001A39F700D811D1124911D85
S1131360B29F700D811D1124911D08950E94A7093B
S1131370A59F900DB49F900DA49F800D911D1124E5
S11313800895AA1BBB1B51E107C0AA1FBB1FA617C8
S1131390B70710F0A61BB70B881F991F5A95A9F71A
S11113A080959095BC01CD010895F894FFCF7F
S9030000FC
